:020000040800F2
:100000000050002091060008F9050008FF050008CF
:10001000050600080B060008110600080000000095
:1000200000000000000000000000000017060008AB
:1000300023060008000000002F0600083B06000809
:10004000D9060008D9060008D9060008D906000814
:10005000D9060008D9060008D9060008D906000804
:10006000D9060008D9060008D9060008D9060008F4
:10007000D9060008D9060008D9060008D9060008E4
:10008000D9060008D9060008D9060008D9060008D4
:1000900049060008D9060008D9060008D906000854
:1000A000D9060008D9060008D9060008D9060008B4
:1000B000D9060008D9060008D90600085D06000820
:1000C00071060008D9060008D9060008D9060008FC
:1000D000D9060008D9060008D9060008D906000884
:1000E000D9060008D9060008D9060008000000005B
:1000F0000000000000000000000000000000000000
:0C01000000000000000000005FF808F1A3
:10010C0010B5054C237833B9044B13B10448AFF345
:10011C0000800123237010BDCC01002000000000E2
:10012C007C99000808B5034B1BB103490348AFF396
:10013C00008008BD00000000D00100207C99000860
:10014C0080B58CB000AF00F0C3FA00F0DFF800F01F
:10015C0065F900F035F908F053FE00237B6207F1D6
:10016C00280300221A609A800023BB6107F11C034C
:10017C0000221A609A800023FB6007F11003002212
:10018C001A609A8000233B603B1D00221A609A8003
:10019C0040215B4808F042FF002387F82F3082E0B3
:1001AC0097F82F30574AD35C002B10D097F82F308C
:1001BC00544AD35C1C2B0AD897F82F2097F82F3071
:1001CC0050498A5C30333B4403F80C2C06E097F81A
:1001DC002F3030333B44002203F80C2C97F82F308F
:1001EC00484AD35C1C2B12D997F82F30454AD35C64
:1001FC00382B0CD897F82F30424AD25C97F82F3016
:10020C001C3AD2B230333B4403F8182C06E097F872
:10021C002F3030333B44002203F8182C97F82F3042
:10022C00384AD35C382B12D997F82F30354AD35C27
:10023C00542B0CD897F82F30324AD25C97F82F30C9
:10024C00383AD2B230333B4403F8242C06E097F80A
:10025C002F3030333B44002203F8242C97F82F30F6
:10026C00284AD35C542B12D997F82F30254AD35CEB
:10027C00702B0CD897F82F30224AD25C97F82F307D
:10028C00543AD2B230333B4403F8302C06E097F8A2
:10029C002F3030333B44002203F8302C97F82F30AA
:1002AC00013387F82F3097F82F30092B7FF678AF72
:1002BC0007F124020A23A021134800F017FF0520A0
:1002CC0000F068FA07F118020A23A2210E4800F088
:1002DC000DFF052000F05EFA07F10C020A23A421A1
:1002EC00094800F003FF052000F054FA3A460A23AF
:1002FC00A621054800F0FAFE052000F04BFA47E76E
:10030C00E8010020280200203402002080B594B0BF
:10031C0000AF07F1280328220021184609F0E8FA5B
:10032C0007F1140300221A605A609A60DA601A61AD
:10033C003B1D00221A605A609A60DA600123BB628E
:10034C004FF48033FB6200233B630123BB63022326
:10035C007B644FF48033BB644FF4E013FB6407F110
:10036C002803184604F08EF90346002B01D000F048
:10037C00B7F80F237B610223BB610023FB614FF4B1
:10038C0080633B6200237B6207F114030221184651
:10039C0004F0FAFB0346002B01D000F0A1F8102367
:1003AC007B6000233B613B1D184604F067FD034650
:1003BC00002B01D000F094F800BF5037BD4680BD33
:1003CC0080B500AF124B134A1A60114B124A5A6097
:1003DC000F4B00229A600E4B0022DA600C4B4FF44C
:1003EC0080421A610A4B00225A61094B00229A6121
:1003FC00074B0022DA61064B00221A62044800F017
:10040C001DFD0346002B01D000F06AF800BF80BD33
:10041C003402002000540040A086010080B588B052
:10042C0000AF07F1100300221A605A609A60DA607C
:10043C00284B9B69274A43F020039361254B9B690A
:10044C0003F02003FB60FB68224B9B69214A43F0BD
:10045C00080393611F4B9B6903F00803BB60BB68E7
:10046C001C4B9B691B4A43F004039361194B9B691A
:10047C0003F004037B607B6800224FF218011648DE
:10048C0000F0C4FC00224FF40741144800F0BEFCFD
:10049C004FF218033B6101237B610023BB610223F4
:1004AC00FB6107F1100319460B4800F02BFB4FF4CE
:1004BC0007433B6101237B610023BB610223FB618A
:1004CC0007F110031946054800F01CFB00BF20374C
:1004DC00BD4680BD00100240000C014000080140E8
:1004EC0080B400AF72B600BFFEE7000080B485B0E8
:1004FC0000AF154B9B69144A43F001039361124BF7
:10050C009B6903F00103BB60BB680F4BDB690E4AB0
:10051C0043F08053D3610C4BDB6903F080537B6059
:10052C007B680A4B5B68FB60FB6823F0E063FB6055
:10053C00FB6843F00073FB60044AFB68536000BF28
:10054C001437BD4680BC70470010024000000140CB
:10055C0080B588B000AF786007F1100300221A60F4
:10056C005A609A60DA607B681B681D4A934233D1EB
:10057C001C4B9B691B4A43F008039361194B9B6905
:10058C0003F00803FB60FB68C0233B6112237B6113
:10059C000323FB6107F110031946134800F0B2FA6C
:1005AC00104BDB690F4A43F40013D3610D4BDB692D
:1005BC0003F40013BB60BB68002200211F2000F075
:1005CC00E4F91F2000F0FDF900220021202000F0AA
:1005DC00DCF9202000F0F5F900BF2037BD4680BDC6
:1005EC000054004000100240000C014080B400AFE9
:1005FC00FEE780B400AFFEE780B400AFFEE780B446
:10060C0000AFFEE780B400AFFEE780B400AF00BFE0
:10061C00BD4680BC704780B400AF00BFBD4680BCF7
:10062C00704780B400AF00BFBD4680BC704780B53A
:10063C0000AF00F093F800BF80BD000080B500AFA4
:10064C00024802F0D6FB00BF80BD00BF540F002053
:10065C0080B500AF024800F0E9FD00BF80BD00BFCF
:10066C003402002080B500AF024800F032FF00BF1A
:10067C0080BD00BF3402002080B400AF00BFBD4677
:10068C0080BC7047FFF7F8FF0B480C490C4A00235D
:10069C0002E0D458C4500433C4188C42F9D3094A2C
:1006AC00094C002301E013600432A242FBD309F091
:1006BC002DF9FFF745FD704700000020CC0100200C
:1006CC000C9B0008CC0100209C150020FEE70000CC
:1006DC0080B500AF084B1B68074A43F0100313604A
:1006EC00032000F047F90F2000F008F8FFF7FEFE9A
:1006FC000023184680BD00BF0020024080B582B0A8
:10070C0000AF7860124B1A68124B1B7819464FF4E5
:10071C007A73B3FBF1F3B2FBF3F3184600F05FF915
:10072C000346002B01D001230EE07B680F2B0AD867
:10073C00002279684FF0FF3000F027F9064A7B68F9
:10074C001360002300E0012318460837BD4680BD26
:10075C0000000020080000200400002080B400AF3E
:10076C00054B1B781A46054B1B681344034A136050
:10077C0000BFBD4680BC70470800002088020020E6
:10078C0080B400AF024B1B681846BD4680BC704756
:10079C008802002080B584B000AF7860FFF7F0FFCE
:1007AC00B8607B68FB60FB68B3F1FF3F05D00A4B78
:1007BC001B781A46FB681344FB6000BFFFF7E0FF91
:1007CC000246BB68D31AFA689A42F7D800BF00BF3A
:1007DC001037BD4680BD00BF0800002080B485B036
:1007EC0000AF78607B6803F00703FB600C4BDB68A1
:1007FC00BB60BA684FF6FF031340BB60FB681A027C
:10080C00BB68134343F0BF6343F40033BB60044A3B
:10081C00BB68D36000BF1437BD4680BC704700BFB7
:10082C0000ED00E080B400AF044BDB681B0A03F062
:10083C0007031846BD4680BC704700BF00ED00E0C2
:10084C0080B483B000AF0346FB7197F90730002BDF
:10085C000BDBFB7903F01F02064997F907305B09A4
:10086C00012000FA02F241F8232000BF0C37BD46EC
:10087C0080BC704700E100E080B483B000AF034659
:10088C003960FB7197F90730002B0ADB3B68DAB251
:10089C000C4997F907301201D2B20B4483F80023AC
:1008AC000AE03B68DAB20849FB7903F00F03043B1A
:1008BC001201D2B20B441A7600BF0C37BD4680BC75
:1008CC00704700BF00E100E000ED00E080B489B0AB
:1008DC0000AFF860B9607A60FB6803F00703FB6156
:1008EC00FB69C3F10703042B28BF0423BB61FB691D
:1008FC000433062B02D9FB69033B00E000237B6128
:10090C004FF0FF32BB6902FA03F3DA43BB681A40BB
:10091C007B699A404FF0FF317B6901FA03F3D943AD
:10092C007B680B40134318462437BD4680BC704788
:10093C0080B582B000AF78607B68013BB3F1807FFB
:10094C0001D301230FE00A4A7B68013B53600F215E
:10095C004FF0FF30FFF790FF054B00229A60044BDD
:10096C0007221A60002318460837BD4680BD00BF19
:10097C0010E000E080B582B000AF78607868FFF7D7
:10098C002DFF00BF0837BD4680BD80B586B000AFD7
:10099C000346B9607A60FB7300237B61FFF742FF6B
:1009AC0078617A68B9687869FFF790FF024697F921
:1009BC000F3011461846FFF75FFF00BF1837BD46D2
:1009CC0080BD80B582B000AF0346FB7197F907304C
:1009DC001846FFF735FF00BF0837BD4680BD80B510
:1009EC0082B000AF78607868FFF7A2FF0346184624
:1009FC000837BD4680BD000080B584B000AF78607C
:100A0C000023FB737B6893F82130DBB2022B05D0FB
:100A1C007B6804229A630123FB7351E07B681B689B
:100A2C001A687B681B6822F00E021A607B681B68D0
:100A3C001A687B681B6822F001021A607B681B68CD
:100A4C00224A934229D07B681B68214A934222D0C8
:100A5C007B681B681F4A93421AD07B681B681E4A2E
:100A6C00934212D07B681B681C4A93420AD07B6865
:100A7C001B681B4A934202D14FF480130EE04FF0D7
:100A8C0080730BE04FF4803308E04FF4805305E0A3
:100A9C004FF4807302E0102300E00123114A5360ED
:100AAC007B68012283F821207B68002283F82020B8
:100ABC007B685B6B002B03D07B685B6B786898471B
:100ACC00FB7B18461037BD4680BD00BF08000240B6
:100ADC001C0002403000024044000240580002401A
:100AEC006C0002400000024080B483B000AF78601C
:100AFC007B6893F82130DBB218460C37BD4680BCBE
:100B0C007047000080B48BB000AF78603960002370
:100B1C007B6200233B6269E101227B6A02FA03F3E8
:100B2C00FB613B681B68FA691340BB61BA69FB69DE
:100B3C009A4240F058813B685B689A4A93425ED077
:100B4C00984A934275D8984A934258D0964A934201
:100B5C006FD8964A934252D0944A934269D8944A99
:100B6C0093424CD0924A934263D8924A934246D0D5
:100B7C00904A93425DD8122B2AD8122B59D801A235
:100B8C0052F823F00B0C0008E50B0008F70B0008DB
:100B9C00390C00083F0C00083F0C00083F0C000803
:100BAC003F0C00083F0C00083F0C00083F0C0008ED
:100BBC003F0C00083F0C00083F0C00083F0C0008DD
:100BCC003F0C00083F0C0008ED0B0008010C00085E
:100BDC00794A934213D02CE03B68DB683B6229E0F6
:100BEC003B68DB6804333B6224E03B68DB6808331A
:100BFC003B621FE03B68DB680C333B621AE03B68EE
:100C0C009B68002B02D104233B6213E03B689B687A
:100C1C00012B05D108233B627B68FA691A6109E054
:100C2C0008233B627B68FA695A6103E000233B624C
:100C3C0000E000BFBB69FF2B01D87B6801E07B683B
:100C4C0004337B61BB69FF2B02D87B6A9B0002E0FB
:100C5C007B6A083B9B003B617B691A680F213B69EF
:100C6C0001FA03F3DB431A40396A3B6901FA03F3D7
:100C7C001A437B691A603B685B6803F08053002B56
:100C8C0000F0B1804D4B9B694C4A43F001039361DA
:100C9C004A4B9B6903F00103BB60BB68484A7B6A03
:100CAC009B08023352F82330FB607B6A03F003038A
:100CBC009B000F2202FA03F3DB43FA681340FB603C
:100CCC007B68404A934213D07B683F4A93420DD0D5
:100CDC007B683E4A934207D07B683D4A934201D1E0
:100CEC00032306E0042304E0022302E0012300E0D6
:100CFC0000237A6A02F0030292009340FA681343CD
:100D0C00FB602F497B6A9B080233FA6841F8232069
:100D1C003B685B6803F48013002B06D02D4B9A685C
:100D2C002C49BB6913438B6006E02A4B9A68BB695C
:100D3C00DB43284913408B603B685B6803F400136A
:100D4C00002B06D0234BDA682249BB691343CB60D6
:100D5C0006E0204BDA68BB69DB431E491340CB60CD
:100D6C003B685B6803F40033002B06D0194B5A68C0
:100D7C001849BB6913434B6006E0164B5A68BB69B4
:100D8C00DB43144913404B603B685B6803F48033CE
:100D9C00002B21D00F4B1A680E49BB6913430B6013
:100DAC0021E000BF000032100000311000002210C2
:100DBC000000211000001210000011100010024061
:100DCC000000014000080140000C014000100140EF
:100DDC0000140140000401400B4B1A68BB69DB4353
:100DEC00094913400B607B6A01337B623B681A68CC
:100DFC007B6A22FA03F3002B7FF48EAE00BF00BF98
:100E0C002C37BD4680BC70470004014080B483B0D1
:100E1C0000AF78600B467B8013467B707B78002B91
:100E2C0003D07A887B681A6103E07B881A047B689C
:100E3C001A6100BF0C37BD4680BC704780B584B0CA
:100E4C0000AF78607B68002B01D101232BE17B681C
:100E5C0093F83D30DBB2002B06D17B68002283F87F
:100E6C003C207868FFF774FB7B68242283F83D20D4
:100E7C007B681B681A687B681B6822F001021A6089
:100E8C007B681B681A687B681B6842F400421A6016
:100E9C007B681B681A687B681B6822F400421A6026
:100EAC0003F0BAFFF8607B685B68814A934207D80D
:100EBC00FB68804A934294BF01230023DBB206E017
:100ECC00FB687D4A934294BF01230023DBB2002BC5
:100EDC0001D00123E7E0FB68784AA2FB03239B0CBB
:100EEC00BB607B681B685B6823F03F017B681B68F9
:100EFC00BA680A435A607B681B681B6A23F03F017F
:100F0C007B685B686A4A934202D8BB68013309E08C
:100F1C00BB684FF4967202FB03F3694AA2FB0323EE
:100F2C009B0901337A6812680B4313627B681B6858
:100F3C00DB6923F44F4222F0FF027B685B685C495B
:100F4C008B4219D8FB68591E7B685B685B00B1FB50
:100F5C00F3F3591C40F6FC730B40002B0AD0FB68D2
:100F6C00591E7B685B685B00B1FBF3F30133C3F381
:100F7C000B0351E004234FE07B689B68002B11D1DD
:100F8C00FB68581E7B6859680B465B000B44B0FB32
:100F9C00F3F30133C3F30B03002B0CBF012300232A
:100FAC00DBB212E0FB68581E7B6859680B469B004D
:100FBC000B4499000B44B0FBF3F30133C3F30B0365
:100FCC00002B0CBF01230023DBB2002B01D001232B
:100FDC0022E07B689B68002B0ED1FB68581E7B6857
:100FEC0059680B465B000B44B0FBF3F30133C3F3BE
:100FFC000B0343F400430FE0FB68581E7B685968F1
:10100C000B469B000B4499000B44B0FBF3F30133EC
:10101C00C3F30B0343F44043796809681343CB6172
:10102C007B681B681B6823F0C0017B68DA697B68EE
:10103C001B6A1A437B681B680A431A607B681B682F
:10104C009B6823F4034323F0FF037A6811697A68E1
:10105C00D26811437A6812680B4393607B681B68F3
:10106C00DB6823F0FF017B685A697B689B691A4334
:10107C007B681B680A43DA607B681B681A687B68AC
:10108C001B6842F001021A607B6800221A647B68BC
:10109C00202283F83D207B6800221A637B680022A3
:1010AC0083F83E20002318461037BD4680BD00BF94
:1010BC00A08601007F841E00FF083D0083DE1B43D9
:1010CC00D34D621080B483B000AF78607B681B682E
:1010DC005B6903F08003802B03D17B681B680022C3
:1010EC001A6100BF0C37BD4680BC704780B487B016
:1010FC0000AFF8607A601A460B467B8113463B8141
:10110C0000237B61FB6893F83D30DBB2202B40F071
:10111C008180434B1B68DB08424AA2FB03231A0A5B
:10112C0013469B0013449A0013447B617B69013B7B
:10113C007B617B69002B12D1FB6800221A63FB6870
:10114C00202283F83D20FB68002283F83E20FB68B8
:10115C001B6C43F02002FB681A6402235BE0FB6803
:10116C001B689B6903F00203022BDFD0FB6893F82A
:10117C003C30012B01D102234DE0FB68012283F8A6
:10118C003C20FB681B681B6803F00103012B07D094
:10119C00FB681B681A68FB681B6842F001021A6046
:1011AC00FB681B681A68FB681B6822F400621A60F3
:1011BC00FB68212283F83D20FB68102283F83E2037
:1011CC00FB6800221A64FB687A685A62FB683A89E9
:1011DC005A85FB685B8D9AB2FB681A85FB68124ACC
:1011EC00DA627A89FB685A64FB68002283F83C2037
:1011FC00FB681B685A68FB681B6842F4E0625A6023
:10120C00FB681B681A68FB681B6842F480721A60E2
:10121C00002300E0022318461C37BD4680BC7047F3
:10122C000000002089B5F8140000FFFF80B588B0DD
:10123C0000AF78600023BB617B681B685B687B61D7
:10124C007B68DB6A3B617B6893F83E30FB737B68A1
:10125C0093F83D30BB73FB7B102B03D0FB7B402BF7
:10126C0040F0B1807B681B689B69BB617B681B6825
:10127C005B69FB61FB6903F00103002B0DD13B693A
:10128C00B3F52A0F03D03B69B3F12A4F01D10123E7
:10129C0000E00023012B00F01481FB6903F0010333
:1012AC00002B0BD07B6903F40073002B06D07868FD
:1012BC0001F060FC786800F060FD83E0FB6903F0EE
:1012CC000803002B08D07B6903F40073002B03D0B8
:1012DC00786800F0D7FD75E0FB6903F00203002B82
:1012EC0008D07B6903F40073002B03D0786800F0FE
:1012FC00F2FD67E0BB6903F00403002B36D07B687A
:10130C001B685B6803F40063B3F5006F00F0DB80CF
:10131C00FB6903F08003002B0DD07B6903F4806321
:10132C00002B08D0FB6903F00403002B03D1786871
:10133C0000F0D4F946E0FB6903F00403002B00F045
:10134C00C2807B6903F40073002B00F0BC80BB7B74
:10135C00212B03D1786800F05DFAB4E0FB7B402BC5
:10136C0040F0B180786800F0CBFAACE07B681B6889
:10137C005B6803F40063B3F5006F00F0A480FB69B5
:10138C0003F04003002B0DD07B6903F48063002B2A
:10139C0008D0FB6903F00403002B03D1786800F03C
:1013AC0047FB0FE0FB6903F00403002B00F08B807C
:1013BC007B6903F40073002B00F08580786800F0E3
:1013CC00F2FB80E07FE07B681B6C002B04D07B6819
:1013DC001B685B69FB6107E07B681B689B69BB61F1
:1013EC007B681B685B69FB61FB6903F00203002BE4
:1013FC0011D07B6903F40073002B0CD07B681B6C41
:10140C00002B03D07B681B689B69BB61B96978684A
:10141C0000F0B8FF5AE0FB6903F01003002B08D072
:10142C007B6903F40073002B03D0786800F0F2FFA3
:10143C004CE0BB7B212B02D0BB7B292B20D1FB6941
:10144C0003F08003002B0DD07B6903F48063002B29
:10145C0008D0FB6903F00403002B03D1786800F07B
:10146C00D5FE32E0FB6903F00403002B2DD07B6921
:10147C0003F40073002B28D0786800F004FF24E0FC
:10148C00FB6903F04003002B0DD07B6903F48063F0
:10149C00002B08D0FB6903F00403002B03D1786800
:1014AC0000F011FF12E0FB6903F00403002B0DD0D8
:1014BC007B6903F40073002B08D0786800F041FFBF
:1014CC0004E000BF02E000BF00E000BF2037BD46D3
:1014DC0080BD80B58AB000AF78607B681B685B69A3
:1014EC003B627B681B685B68FB6100237B627B68EB
:1014FC0093F83E30FB763B6A03F48073002B15D0D7
:10150C00FB6903F48073002B10D07B6A43F001035A
:10151C007B627B681B686FF480725A617B681B6806
:10152C001A687B681B6842F400421A603B6A03F439
:10153C000073002B0DD0FB6903F48073002B08D0D3
:10154C007B6A43F002037B627B681B686FF400725A
:10155C005A613B6A03F48063002B3ED0FB6903F4B1
:10156C008073002B39D0FB7EBB767B685B8D9BB286
:10157C007B617B6893F83D30FB747B681B6BFB6075
:10158C00BB7E202B12D17B69002B0FD1FB7C212B36
:10159C0008D0FB7C292B05D0FB7C282B06D1FB68C3
:1015AC00212B03D1786801F065F816E07B681B6885
:1015BC006FF480625A617B6A43F004037B62FB7EAA
:1015CC00102B02D0FB7E402B07D17B681B681A685E
:1015DC007B681B6842F400721A603B6A03F4006378
:1015EC00002B0DD0FB6903F48073002B08D07B6AB1
:1015FC0043F008037B627B681B686FF400625A61DE
:10160C007B6A002B08D07B681A6C7B6A1A437B6858
:10161C001A64786801F0A2F800BF2837BD4680BD77
:10162C0080B483B000AF786000BF0C37BD4680BC7F
:10163C00704780B483B000AF786000BF0C37BD46F4
:10164C0080BC704780B483B000AF786000BF0C37AB
:10165C00BD4680BC704780B483B000AF786000BFDB
:10166C000C37BD4680BC704780B483B000AF786047
:10167C000B46FB7013463B8000BF0C37BD4680BC4D
:10168C00704780B483B000AF786000BF0C37BD46A4
:10169C0080BC704780B483B000AF786000BF0C375B
:1016AC00BD4680BC704780B483B000AF786000BF8B
:1016BC000C37BD4680BC704780B483B000AF7860F7
:1016CC0000BF0C37BD4680BC704780B483B000AF00
:1016DC00786000BF0C37BD4680BC704780B584B0C5
:1016EC0000AF78607B6893F83D30FB737B6893F8B0
:1016FC003E30BB737B68DB6ABB607B681B8D002B49
:10170C0050D1FB7B212B4DD1BB68082B1DD0BB6866
:10171C00202B1AD0BB6813F5803F16D07B681B6852
:10172C005A687B681B6822F4E0625A607B6811225D
:10173C001A637B68002283F83E207B68202283F8A2
:10174C003D207868FFF76CFF60E07B681B685A6887
:10175C007B681B6822F4E0625A607B681B681A681D
:10176C007B681B6842F400721A607B6800221A6363
:10177C007B68202283F83D207B6893F83E30DBB2F7
:10178C00402B07D17B68002283F83E207868FFF756
:10179C0081FF3BE07B68002283F83E207868FFF7EE
:1017AC003FFF33E0FB7B212B05D0BB7B402B2DD1A6
:1017BC00FB7B222B2AD17B685B8D9BB2002B08D143
:1017CC007B681B685A687B681B6822F480625A60CD
:1017DC001CE07B6893F83E30DBB2402B03D1786879
:1017EC0000F08EF812E07B685B6A1A787B681B68E5
:1017FC001A617B685B6A5A1C7B685A627B685B8DDA
:10180C009BB2013B9AB27B685A85FFE700BF103749
:10181C00BD4680BD80B584B000AF78607B68DB6A64
:10182C00FB607B6893F83D30DBB2212B64D17B6885
:10183C005B8D9BB2002B12D07B685B6A1A787B683D
:10184C001B681A617B685B6A5A1C7B685A627B68EE
:10185C005B8D9BB2013B9AB27B685A854CE0FB686E
:10186C00082B1DD0FB68202B1AD0FB6813F5803F8A
:10187C0016D07B681B685A687B681B6822F4E06290
:10188C005A607B6811221A637B68002283F83E2021
:10189C007B68202283F83D207868FFF7C1FE2BE09F
:1018AC007B681B685A687B681B6822F4E0625A608C
:1018BC007B681B681A687B681B6842F400721A60AC
:1018CC007B6800221A637B68202283F83D207B68AA
:1018DC0093F83E30DBB2402B07D17B68002283F8B3
:1018EC003E207868FFF7D6FE06E07B68002283F87E
:1018FC003E207868FFF794FE00BF1037BD4680BDD0
:10190C0080B584B000AF78607B6893F83D30FB7392
:10191C007B681B6D002B1DD17B68DB6C012B0BD105
:10192C007B689B6CDAB27B681B681A617B681B6DE9
:10193C009A1C7B681A6577E07B689B6C9BB21B12C8
:10194C00DAB27B681B681A617B681B6D5A1C7B685A
:10195C001A6569E07B681B6D012B0BD17B689B6C56
:10196C00DAB27B681B681A617B681B6D5A1C7B683A
:10197C001A6559E07B681B6D022B52D1FB7B222B25
:10198C000DD17B681B681A687B681B6842F48072F7
:10199C001A607B681B6D5A1C7B681A6544E07B6877
:1019AC005B8D9BB2002B15D0FB7B212B12D17B685E
:1019BC005B6A1A787B681B681A617B685B6A5A1CC5
:1019CC007B685A627B685B8D9BB2013B9AB27B68E9
:1019DC005A8529E07B685B8D9BB2002B24D1FB7B65
:1019EC00212B21D17B681B685A687B681B6822F409
:1019FC00E0625A607B681B681A687B681B6842F45B
:101A0C0000721A607B6800221A637B68202283F8BC
:101A1C003D207B68002283F83E207868FFF73AFE71
:101A2C0002E07868FFF74EFB00BF1037BD4680BD63
:101A3C0080B584B000AF78607B6893F83D30DBB242
:101A4C00222B40F0AC807B685B8D9BB2FB60FB680B
:101A5C00032B21D97B681B681A697B685B6AD2B23D
:101A6C001A707B685B6A5A1C7B685A627B685B8D58
:101A7C009BB2013B9AB27B685A857B685B8D9BB2AB
:101A8C00032B40F08C807B681B685A687B681B6852
:101A9C0022F480625A6082E07B68DB6A022B75D08C
:101AAC00FB68012B02D0FB68002B6FD1786801F02A
:101ABC002FF80346002B42D17B681B681A687B68A1
:101ACC001B6822F480621A607B681B685A687B680A
:101ADC001B6822F4E0625A607B681B681A697B6899
:101AEC005B6AD2B21A707B685B6A5A1C7B685A625A
:101AFC007B685B8D9BB2013B9AB27B685A857B6895
:101B0C00202283F83D207B6893F83E30DBB2402BDB
:101B1C000AD17B68002283F83E207B6800221A637E
:101B2C007868FFF7C0FD3AE07B68002283F83E201E
:101B3C007B6812221A637868FFF77BFD2FE07B68C5
:101B4C001B685A687B681B6822F4E0625A607B68E9
:101B5C001B681A697B685B6AD2B21A707B685B6A15
:101B6C005A1C7B685A627B685B8D9BB2013B9AB2B4
:101B7C007B685A857B68202283F83D207B68002295
:101B8C0083F83E207868FFF797FD08E07B681B68B8
:101B9C005A687B681B6822F480625A60FFE700BFBA
:101BAC001037BD4680BD80B584B000AF78607B68CF
:101BBC00DB6AFB607B685B8D9BB2042B1BD17B6863
:101BCC001B685A687B681B6822F480625A607B68C9
:101BDC001B681A697B685B6AD2B21A707B685B6A95
:101BEC005A1C7B685A627B685B8D9BB2013B9AB234
:101BFC007B685A85BDE07B685B8D9BB2032B29D13A
:101C0C007B681B685A687B681B6822F480625A6088
:101C1C00FB68042B0AD0FB68022B07D07B681B687F
:101C2C001A687B681B6822F480621A607B681B68E8
:101C3C001A697B685B6AD2B21A707B685B6A5A1C41
:101C4C007B685A627B685B8D9BB2013B9AB27B6866
:101C5C005A858EE07B685B8D9BB2022B76D1FB683C
:101C6C00012B02D0FB68102B08D17B681B681A680B
:101C7C007B681B6822F480621A6019E0FB68042BF5
:101C8C0002D0FB68022B08D17B681B681A687B6842
:101C9C001B6842F480621A600AE0FB68102B07D0C4
:101CAC007B681B681A687B681B6842F400721A60B8
:101CBC007B681B681A697B685B6AD2B21A707B6896
:101CCC005B6A5A1C7B685A627B685B8D9BB2013BDA
:101CDC009AB27B685A857B681B681A697B685B6A59
:101CEC00D2B21A707B685B6A5A1C7B685A627B683A
:101CFC005B8D9BB2013B9AB27B685A857B681B68F3
:101D0C005A687B681B6822F440725A607B682022F8
:101D1C0083F83D207B6893F83E30DBB2402B0AD130
:101D2C007B68002283F83E207B6800221A63786867
:101D3C00FFF7B9FC1DE07B68002283F83E207B682E
:101D4C0012221A637868FFF774FC12E07B681B6838
:101D5C001A697B685B6AD2B21A707B685B6A5A1C20
:101D6C007B685A627B685B8D9BB2013B9AB27B6845
:101D7C005A8500BF1037BD4680BD80B483B000AF1C
:101D8C0078607B6893F83E30DBB2402B17D17B68D0
:101D9C001B6D002B09D17B685B6CDBB21A467B6830
:101DAC001B6802F0FE021A6167E07B685B6CDBB2B9
:101DBC0043F00103DAB27B681B681A615DE07B6853
:101DCC001B69B3F5804F33D17B6893F83D30DBB2A0
:101DDC00212B09D17B685B6CDBB21A467B681B68D4
:101DEC0002F0FE021A6108E07B685B6CDBB243F028
:101DFC000103DAB27B681B681A617B685B6B002B92
:101E0C0004D07B685B6B9B6A002B08D17B689B6B57
:101E1C00002B32D07B689B6B9B6A002B2DD07B6890
:101E2C001B685A687B681B6842F400625A6024E0A5
:101E3C007B681B6D002B0ED17B685B6C9BB2DB113E
:101E4C00DBB203F00603DBB263F00F03DAB27B689C
:101E5C001B681A6111E07B681B6D012B0DD17B682F
:101E6C005B6C9BB2DB11DBB203F00603DBB263F0FD
:101E7C000E03DAB27B681B681A6100BF0C37BD46D3
:101E8C0080BC704780B483B000AF78607B685B6CBB
:101E9C00DAB27B681B681A617B685B6B002B04D021
:101EAC007B685B6B9B6A002B08D17B689B6B002B60
:101EBC000CD07B689B6B9B6A002B07D07B681B68E4
:101ECC005A687B681B6842F400625A6000BF0C378A
:101EDC00BD4680BC704780B491B000AF78607B6821
:101EEC0093F83E3087F83F307B68DB6ABB637B68D6
:101EFC001B6B7B637B6893F83D30DBB2222B40F08D
:101F0C0074817B681B6D002B0FD197F83F30402BF1
:101F1C000BD100233B637B681B685B693B637B686D
:101F2C001B689B693B633B6B6BE17B681B6D002BF8
:101F3C001DD17B681B69B3F5404F18D10023FB62A0
:101F4C007B681B685B69FB627B681B689B69FB6237
:101F5C00FB6A7B681B681A687B681B6842F480729A
:101F6C001A607B681B6D5A1C7B681A6549E17B689B
:101F7C005B8D9BB2002B13D10023BB627B681B686B
:101F8C005B69BB627B681B689B69BB62BB6A7B68D5
:101F9C001B681A687B681B6842F400721A6020E1A7
:101FAC007B685B8D9BB2012B40F08A80BB6B13F579
:101FBC00803F37D17B681B681A687B681B6822F4EA
:101FCC0080621A607B681B685B6803F40063B3F57E
:101FDC00006F13D17B681B681A687B681B6822F43E
:101FEC0080621A6000237B627B681B685B697B6282
:101FFC007B681B689B697B627B6AF2E000233B6217
:10200C007B681B685B693B627B681B689B693B62F6
:10201C003B6A7B681B681A687B681B6842F4007219
:10202C001A60DEE0BB6B082B2ED0BB6B202B2BD0A9
:10203C007B6B122B02D1BB6B012B25D1BB6B042B01
:10204C000ED0BB6B022B0BD0BB6B102B08D07B685C
:10205C001B681A687B681B6822F480621A6007E0B0
:10206C007B681B681A687B681B6842F480621A6084
:10207C000023FB617B681B685B69FB617B681B68E9
:10208C009B69FB61FB69ACE07B681B681A687B6829
:10209C001B6822F480621A600023BB617B681B689A
:1020AC005B69BB617B681B689B69BB61BB697B68B7
:1020BC001B681A687B681B6842F400721A6090E017
:1020CC007B685B8D9BB2022B58D1BB6B042B21D050
:1020DC00BB6B022B1ED0BB6B102B1BD07B681B6801
:1020EC001A687B681B6842F400621A6000237B61EB
:1020FC007B681B685B697B617B681B689B697B6188
:10210C007B697B681B681A687B681B6822F4806299
:10211C001A6012E07B681B681A687B681B6842F4C3
:10212C0080621A6000233B617B681B685B693B61C2
:10213C007B681B689B693B613B697B681B685B68C0
:10214C0003F40063B3F5006F4BD1BB6B13F5803F09
:10215C000BD0BB6B012B08D0BB6B082B05D0BB6B1A
:10216C00102B02D0BB6B202B3BD17B681B685A68B1
:10217C007B681B6842F480525A6032E07B681B68B3
:10218C001A687B681B6842F480621A607B681B6863
:10219C005B6803F40063B3F5006F17D1BB6B13F5E9
:1021AC00803F0BD0BB6B012B08D0BB6B082B05D031
:1021BC00BB6B102B02D0BB6B202B07D17B681B6831
:1021CC005A687B681B6842F480525A600023FB609B
:1021DC007B681B685B69FB607B681B689B69FB60A9
:1021EC00FB687B6800221A650BE00023BB607B68F0
:1021FC001B685B69BB607B681B689B69BB60BB68C9
:10220C00FFE700BF4437BD4680BC704780B584B043
:10221C0000AF78607B6893F83D30FB737B685B8D17
:10222C009BB2002B2BD07B685B6A1A787B681B688F
:10223C001A617B685B6A5A1C7B685A627B685B8D8F
:10224C009BB2013B9AB27B685A857B685B8D9BB2D3
:10225C00002B14D1FB7B292B11D17B681B685A688E
:10226C007B681B6822F480625A607B6821221A63A7
:10227C007B68282283F83D207868FFF7E3F900BFDC
:10228C001037BD4680BD80B483B000AF78607B68EA
:10229C005B8D9BB2002B11D07B685B6A1A787B68D4
:1022AC001B681A617B685B6A5A1C7B685A627B6884
:1022BC005B8D9BB2013B9AB27B685A8500BF0C3791
:1022CC00BD4680BC704780B584B000AF78607B6839
:1022DC0093F83D30FB737B685B8D9BB2002B2CD04D
:1022EC007B681B681A697B685B6AD2B21A707B6860
:1022FC005B6A5A1C7B685A627B685B8D9BB2013BA4
:10230C009AB27B685A857B685B8D9BB2002B14D18B
:10231C00FB7B2A2B11D17B681B685A687B681B6876
:10232C0022F480625A607B6822221A637B6828221E
:10233C0083F83D207868FFF78EF900BF1037BD4653
:10234C0080BD80B483B000AF78607B685B8D9BB23E
:10235C00002B12D07B681B681A697B685B6AD2B24F
:10236C001A707B685B6A5A1C7B685A627B685B8D4F
:10237C009BB2013B9AB27B685A8500BF0C37BD46B5
:10238C0080BC704780B584B000AF786039600023A2
:10239C00FB737B6893F83D30DBB203F02803282BEA
:1023AC0025D17B681B685A687B681B6822F48062A5
:1023BC005A603B6803F00403002B01D10123FB732B
:1023CC003B6803F08003002B03D17B68DB68BB8187
:1023DC0002E07B689B69BB817B68002283F83C2010
:1023EC00BA89FB7B19467868FFF73EF90EE00023AB
:1023FC00BB607B681B685B69BB607B681B689B6907
:10240C00BB60BB687B68002283F83C2000BF1037A0
:10241C00BD4680BD80B584B000AF78607B6893F812
:10242C003D30FB737B681B685A687B681B6822F421
:10243C00E0625A600023BB607B681B685B69BB6011
:10244C007B681B681A687B681B6842F001021A6083
:10245C00BB687B681B681A687B681B6822F4806207
:10246C001A607B681B685B6803F40063B3F5006F4C
:10247C0072D1FB7B222B02D0FB7B2A2B35D17B68C4
:10248C009B6B1B685B689AB27B685A857B685B8D1B
:10249C009BB2002B05D07B681B6C43F004027B685D
:1024AC001A647B681B685A687B681B6822F400629C
:1024BC005A607B689B6B1846FEF716FB0346012B94
:1024CC0049D07B689B6B694A5A637B689B6B184647
:1024DC00FEF792FA0346002B3DD07B689B6B5B6B3F
:1024EC007A68926B1046984735E07B685B6B1B688B
:1024FC005B689AB27B685A857B685B8D9BB2002BBC
:10250C0005D07B681B6C43F004027B681A647B6803
:10251C001B685A687B681B6822F400625A607B68EF
:10252C005B6B1846FEF7E0FA0346012B14D07B6870
:10253C005B6B4E4A5A637B685B6B1846FEF75CFA22
:10254C000346002B08D07B685B6B5B6B7A68526B25
:10255C001046984700E000BF7B685B8D9BB2002B58
:10256C003ED07B681B685B6903F00403042B12D11B
:10257C007B681B681A697B685B6AD2B21A707B68CD
:10258C005B6A5A1C7B685A627B685B8D9BB2013B11
:10259C009AB27B685A857B681B685B6903F04003C1
:1025AC00402B12D17B681B681A697B685B6AD2B2BC
:1025BC001A707B685B6A5A1C7B685A627B685B8DFD
:1025CC009BB2013B9AB27B685A857B685B8D9BB250
:1025DC00002B05D07B681B6C43F004027B681A64EB
:1025EC007B681B6C002B03D0786800F0B7F839E0DF
:1025FC00FB7B2A2B09D17B6800221A637B6828227B
:10260C0083F83D207868FFF726F87B6893F83D3017
:10261C00DBB2282B11D17B68154ADA627B68002269
:10262C001A637B68202283F83D207B68002283F8A4
:10263C003E207868FFF725F814E07B681B6B222B93
:10264C0002D0FB7B222B0DD17B6800221A637B68A6
:10265C00202283F83D207B68002283F83E20786896
:10266C00FEF7F9FF00BF1037BD4680BDCD2900082D
:10267C000000FFFF80B584B000AF78607B6893F8F2
:10268C003D30FB737B68DB6ABB60BB68082B02D0F8
:10269C00BB68202B29D1FB7B282B26D17B682E4AAB
:1026AC00DA627B681B685A687B681B6822F4E062FC
:1026BC005A607B681B686FF480625A617B681B6888
:1026CC001A687B681B6822F480621A607B6800229F
:1026DC001A637B68202283F83D207B68002283F8F4
:1026EC003E207868FEF7CDFF31E0FB7B212B29D112
:1026FC007B68194ADA627B6821221A637B68202284
:10270C0083F83D207B68002283F83E207B681B68A1
:10271C005A687B681B6822F4E0625A607B681B680D
:10272C006FF480625A617B681B681A687B681B684F
:10273C0022F480621A607868FEF7C4FC7868FEF7B1
:10274C0081FF04E07B681B686FF480625A6100BFF4
:10275C001037BD4680BD00BF0000FFFF80B584B0C0
:10276C0000AF78607B6893F83D30FB737B6893F81F
:10277C003E30BB73BB7B102B02D0BB7B402B0AD1F2
:10278C00FB7B222B07D17B681B681A687B681B6854
:10279C0022F400621A60FB7B03F02803282B07D17C
:1027AC007B6800221A637B68282283F83D2015E0A1
:1027BC007B681B685B6803F40063B3F5006F0AD099
:1027CC00FB7B602B07D07B68202283F83D207B6845
:1027DC00002283F83E207B6800221A637B681B680A
:1027EC005B6803F40063B3F5006F62D17B681B6810
:1027FC005A687B681B6822F400625A607B685B6BCA
:10280C0093F82130DBB2012B20D07B685B6B6A4ADA
:10281C005A637B685B6B1846FEF7EEF80346002B99
:10282C0000F089807B681B681A687B681B6822F043
:10283C0001021A607B68202283F83D207B685B6B69
:10284C005B6B7A68526B1046984774E07B689B6BA5
:10285C00594A5A637B689B6B1846FEF7CDF80346C2
:10286C00002B68D07B681B685B6903F04003402B2E
:10287C000BD17B681B681A697B685B6AD2B21A70D1
:10288C007B685B6A5A1C7B685A627B681B681A6897
:10289C007B681B6822F001021A607B68202283F897
:1028AC003D207B689B6B5B6B7A68926B10469847FC
:1028BC0041E07B6893F83D30DBB2602B25D17B681F
:1028CC00202283F83D207B6800221A647B681B68F9
:1028DC005B6903F04003402B0BD17B681B681A69C2
:1028EC007B685B6AD2B21A707B685B6A5A1C7B6825
:1028FC005A627B681B681A687B681B6822F00102AD
:10290C001A607868FEF7E1FE15E07B681B685B696E
:10291C0003F04003402B0BD17B681B681A697B6862
:10292C005B6AD2B21A707B685B6A5A1C7B685A620B
:10293C007868FEF7C1FE7B681B6CBB60BB6803F05C
:10294C000103002B0ED1BB6803F00203002B09D14D
:10295C00BB6803F00403002B04D1BB6803F008032D
:10296C00002B07D07B681B685A687B681B6822F4B5
:10297C00E0625A607B6893F83D30FB737B681B6C9C
:10298C0003F00403042B13D1FB7B282B10D17B68A1
:10299C000A4ADA627B6800221A637B68202283F879
:1029AC003D207B68002283F83E207868FEF769FEA4
:1029BC0000BF1037BD4680BDCD2900080000FFFFC9
:1029CC0080B586B000AF78600023FB607B685B6AE3
:1029DC007B617B6993F83D30FB744B4B1B68DB08C8
:1029EC004A4AA2FB03231A0A13469B001344DA003B
:1029FC00D31AFB60FB68002B06D17B691B6C43F080
:102A0C0020027B691A640AE0FB68013BFB607B696E
:102A1C001B681B6803F40073B3F5007FEAD07B6975
:102A2C005B6B002B03D07B695B6B00229A627B692A
:102A3C009B6B002B03D07B699B6B00229A627B699A
:102A4C001B681A687B691B6822F480621A607B69B8
:102A5C0000225A857B695B6B002B03D07B695B6B17
:102A6C0000225A637B699B6B002B03D07B699B6BA9
:102A7C0000225A637B691B681A687B691B6822F009
:102A8C0001021A607B6993F83D30DBB2602B0ED1EA
:102A9C007B69202283F83D207B69002283F83E204D
:102AAC007B6900221A647869FEF70FFE27E0FB7C35
:102ABC0003F02803282B17D17B691B681A687B69E4
:102ACC001B6842F001021A607B691B681A687B69FB
:102ADC001B6842F480621A607B6900221A637B696E
:102AEC00282283F83D2007E07B69202283F83D20D3
:102AFC007B69002283F83E207869FEF7DDFD00BF7C
:102B0C001837BD4680BD00BF0000002089B5F81401
:102B1C0080B485B000AF78600023FB60134B1B685A
:102B2C00DB08134AA2FB03231A0A13469B00134427
:102B3C00FB60FB68013BFB60FB68002B07D17B68EB
:102B4C001B6C43F020027B681A64012308E07B684D
:102B5C001B681B6803F40073B3F5007FE9D00023F6
:102B6C0018461437BD4680BC704700BF00000020DB
:102B7C0089B5F81480B483B000AF78607B68DB6AE9
:102B8C00B3F52A0F03D17B680122DA6207E07B6878
:102B9C00DB6AB3F12A4F02D17B680822DA6200BFEC
:102BAC000C37BD4680BC7047F0B58BB006AF786073
:102BBC007B68002B01D10123F1E07B6893F8A932EB
:102BCC00DBB2002B06D17B68002283F8A822786840
:102BDC0006F058FB7B68032283F8A9227B681B68EC
:102BEC00184602F027FA7B681B683B607E686D46CE
:102BFC0006F110040FCC0FC523682B60331D0ECBD0
:102C0C00386802F0F1F90346002B05D07B680222EC
:102C1C0083F8A9220123C2E07B681B6800211846B7
:102C2C0002F022FA0023FB7340E0FB7B79685A1C0C
:102C3C0013469B001344DB000B44013301221A7032
:102C4C00FB7B79685A1C13469B001344DB000B4436
:102C5C00FA7B1A70FB7B79685A1C13469B00134451
:102C6C00DB000B44033300221A70FA7B796813469D
:102C7C009B001344DB000B44383300221A60FA7BB0
:102C8C00796813469B001344DB000B443C33002251
:102C9C001A60FA7B796813469B001344DB000B44E3
:102CAC00403300221A60FB7B0133FB73FA7B7B6899
:102CBC005B689A42B9D30023FB7344E0FA7B7968D2
:102CCC0013469B001344DB000B4403F269130022F0
:102CDC001A70FA7B796813469B001344DB000B4493
:102CEC0003F5B473FA7B1A70FA7B796813469B0070
:102CFC001344DB000B4403F26B1300221A70FA7BB3
:102D0C00796813469B001344DB000B4403F5BC733A
:102D1C0000221A60FA7B796813469B001344DB008F
:102D2C000B4403F5BE7300221A60FA7B79681346D4
:102D3C009B001344DB000B4403F5C07300221A60A4
:102D4C00FB7B0133FB73FA7B7B685B689A42B5D3E0
:102D5C007B681B683B607E686D4606F110040FCCE7
:102D6C000FC523682B60331D0ECB386802F088F931
:102D7C000346002B05D07B68022283F8A92201238D
:102D8C000DE07B68002283F824207B68012283F805
:102D9C00A9227B681B68184604F009FC002318461E
:102DAC001437BD46F0BD80B582B000AF78607B684B
:102DBC0093F8A832012B01D1022316E07B68012283
:102DCC0083F8A8227B681B68184602F01DF90121C4
:102DDC00786806F0CAFC7B681B68184604F0DDFBBB
:102DEC007B68002283F8A822002318460837BD46CA
:102DFC0080BD80B588B000AF78607B681B681846D2
:102E0C0004F0DFFBB861BB6903F40043002B03D073
:102E1C00786800F01BFB19E1BB6903F48063002B9D
:102E2C0013D07B681B68B3F844309AB27B681B687C
:102E3C0022F4806292B2A3F84420786806F09DFADE
:102E4C000021786800F005F900E1BB6903F48043C8
:102E5C00002B0CD07B681B68B3F844309AB27B68AB
:102E6C001B6822F4804292B2A3F84420EEE0BB69C6
:102E7C0003F40053002B0CD07B681B68B3F8443070
:102E8C009AB27B681B6822F4005292B2A3F84420D9
:102E9C00DCE0BB6903F48053002B27D07B681B68F4
:102EAC00B3F840309AB27B681B6822F0040292B2ED
:102EBC00A3F840207B681B68B3F840309AB27B685B
:102ECC001B6822F0080292B2A3F84020786806F042
:102EDC008DFA7B681B68B3F844309AB27B681B6828
:102EEC0022F4805292B2A3F84420AFE0BB6903F401
:102EFC000063002B00F083800023FB7710E07B68DD
:102F0C001B681A46FB7F9B001A44FB7F128892B207
:102F1C005B0020333B4423F8182CFB7F0133FB77F9
:102F2C00FB7F072BEBD97B681B68B3F840309AB258
:102F3C007B681B6842F0010292B2A3F840207B68C8
:102F4C001B68B3F840309AB27B681B6822F0010210
:102F5C0092B2A3F8402000BF7B681B68B3F84430E2
:102F6C009BB203F48063002BF6D07B681B68B3F82C
:102F7C0044309AB27B681B6822F4806292B2A3F848
:102F8C0044200023FB770FE0FB7F7A681268114620
:102F9C00FA7F92000A445B0020333B4433F8183C20
:102FAC001380FB7F0133FB77FB7F072BECD97B680E
:102FBC001B68B3F840309AB27B681B6842F0080279
:102FCC0092B2A3F840207B681B68B3F844309AB2E5
:102FDC007B681B6822F4006292B2A3F844207B68E1
:102FEC001B68B3F840309AB27B681B6842F004024D
:102FFC0092B2A3F84020786806F0DEF926E0BB69AF
:10300C0003F40073002B0FD07B681B68B3F84430BB
:10301C009AB27B681B6822F4007292B2A3F8442027
:10302C00786806F09CF911E0BB6903F48073002BFF
:10303C000CD07B681B68B3F844309AB27B681B6871
:10304C0022F4807292B2A3F8442000BF2037BD4610
:10305C0080BD80B582B000AF78600B46FB707B689A
:10306C0093F8A832012B01D1022313E07B680122D3
:10307C0083F8A8227B68FA7883F824207B681B6885
:10308C00FA781146184604F075FA7B68002283F82A
:10309C00A822002318460837BD4680BD80B584B0F1
:1030AC0000AF7860084611461A460346FB700B4683
:1030BC003B801346BB700023FB7297F90330002B47
:1030CC000EDAFB7803F007035A1C13469B001344DB
:1030DC00DB007A681344FB60FB6801225A700EE037
:1030EC00FB7803F0070213469B001344DB0003F547
:1030FC00B4737A681344FB60FB6800225A70FB7847
:10310C0003F00703DAB2FB681A703A88FB681A619D
:10311C00FB68BA78DA70BB78022B02D1FB6800220C
:10312C001A717B6893F8A832012B01D102230EE0AF
:10313C007B68012283F8A8227B681B68F968184613
:10314C0001F0BEFF7B68002283F8A822FB7A1846A8
:10315C001037BD4680BD80B584B000AF78600B469B
:10316C00FB7097F90330002B0EDAFB7803F00703A2
:10317C005A1C13469B001344DB007A681344FB6013
:10318C00FB6801225A700EE0FB7803F0070213462D
:10319C009B001344DB0003F5B4737A681344FB60A3
:1031AC00FB6800225A70FB7803F00703DAB2FB6865
:1031BC001A707B6893F8A832012B01D102230EE020
:1031CC007B68012283F8A8227B681B68F968184683
:1031DC0002F036FB7B68002283F8A82200231846F5
:1031EC001037BD4680BD80B586B000AFF8607A6000
:1031FC003B600B46FB72FB7A03F0070213469B0005
:10320C001344DB0003F5B473FA6813447B617B69E8
:10321C007A685A617B693A689A617B690022DA6143
:10322C007B6900225A70FB7A03F00703DAB27B69E0
:10323C001A70FB681B687969184602F0EDFC0023D4
:10324C0018461837BD4680BD80B483B000AF786097
:10325C000B46FB70FB7803F00702796813469B0062
:10326C001344DB000B4403F5C2731B6818460C3780
:10327C00BD4680BC704780B586B000AFF8607A6000
:10328C003B600B46FB72FB7A03F007035A1C134698
:10329C009B001344DB00FA6813447B617B697A68FA
:1032AC005A617B693A689A617B69012283F8242010
:1032BC007B693A681A627B690022DA617B690122B8
:1032CC005A70FB7A03F00703DAB27B691A70FB6859
:1032DC001B687969184602F09FFC002318461837C2
:1032EC00BD4680BD80B584B000AF78600B46FB70E6
:1032FC00FB7803F007027B685B689A4201D90123D3
:10330C004CE097F90330002B0EDAFB7803F007033F
:10331C005A1C13469B001344DB007A681344FB6071
:10332C00FB6801225A700CE0FA7813469B00134498
:10333C00DB0003F5B4737A681344FB60FB6800226E
:10334C005A70FB6801229A70FB7803F00703DAB21B
:10335C00FB681A707B6893F8A832012B01D1022309
:10336C001CE07B68012283F8A8227B681B68F96843
:10337C00184604F002F8FB7803F00703002B08D181
:10338C007B681A687B6803F52C731946104604F0A9
:10339C0027F97B68002283F8A822002318461037EF
:1033AC00BD4680BD80B584B000AF78600B46FB7025
:1033BC00FB7803F00F027B685B689A4201D901230A
:1033CC0040E097F90330002B0EDAFB7803F007038B
:1033DC005A1C13469B001344DB007A681344FB60B1
:1033EC00FB6801225A700EE0FB7803F007021346CB
:1033FC009B001344DB0003F5B4737A681344FB6041
:10340C00FB6800225A70FB6800229A70FB7803F06C
:10341C000703DAB2FB681A707B6893F8A832012BA9
:10342C0001D102230EE07B68012283F8A8227B687D
:10343C001B68F968184603F0F0FF7B68002283F8DC
:10344C00A822002318461037BD4680BD80B596B023
:10345C0000AF7860BFE37B681B68B3F84430A7F813
:10346C004E30B7F84E30DBB203F00F0387F84D3017
:10347C0097F84D30002B40F07981B7F84E3003F0BF
:10348C001003002B52D17B681B681B889BB223F462
:10349C00E14323F07003FB817B681A68FB896FEAB8
:1034AC0043436FEA53439BB213807B6828337B659D
:1034BC007B681B68B3F850309BB21A467B6D1B7847
:1034CC00DB00134402335B007A681268134403F583
:1034DC0080631B88C3F309027B6DDA617B6D5A69CB
:1034EC007B6DDB691A447B6D5A610021786805F0AD
:1034FC001CFF7B6893F82430DBB2002B00F06B834D
:10350C007B6D9B69002B40F066837B6893F82430BD
:10351C00DBB263F07F03DAB27B681B6892B2A3F86C
:10352C004C207B68002283F8242054E37B6803F54D
:10353C00B4737B657B681B681B88A7F84A30B7F8A7
:10354C004A3003F40063002B34D07B681B68B3F85B
:10355C0050309BB21A467B6D1B78DB00134406334C
:10356C005B007A681268134403F580631B88C3F30D
:10357C0009027B6DDA617B6818687B6803F52C7136
:10358C007B6DDA887B6DDB699BB204F079F87B6824
:10359C001B681B889AB240F68F7313403B827B6882
:1035AC001B683A8A42F0800292B21A80786805F061
:1035BC008FFE10E3B7F94A30002B80F20C837B6846
:1035CC001B681B889AB240F68F731340FB837B6891
:1035DC001B68FA8B42F0800292B21A807B681B68DF
:1035EC00B3F850309BB21A467B6D1B78DB0013444A
:1035FC0006335B007A681268134403F580631B88FA
:10360C00C3F309027B6DDA617B6DDB69002B19D08A
:10361C007B6D5B69002B15D07B6818687B6D5969D5
:10362C007B6DDA887B6DDB699BB204F029F87B6DCE
:10363C005A697B6DDB691A447B6D5A61002178688D
:10364C0005F058FE7B681B681B88A7F84A30B7F852
:10365C004A3003F40063002B40F0BD82B7F84A30C7
:10366C0003F44053B3F5405F00F0B5827B681B68F0
:10367C00BB617B681B68B3F850309BB21A46BB69C0
:10368C001344BB61BB6903F20C437B617B691B88F0
:10369C009BB2C3F309039AB27B691A807B6D1B69D9
:1036AC003E2B1DD97B6D1B695B097B647B6D1B6994
:1036BC0003F01F03002B02D17B6C013B7B647B6905
:1036CC001B889AB27B6C9BB29B029BB213439BB23E
:1036DC006FEA43436FEA53439AB27B691A8026E040
:1036EC007B6D1B69002B0AD17B691B889BB26FEA2F
:1036FC0043436FEA53439AB27B691A8017E07B6DA0
:10370C001B695B087B647B6D1B6903F00103002B59
:10371C0002D07B6C01337B647B691B889AB27B6C17
:10372C009BB29B029BB213439AB27B691A807B6853
:10373C001B681B889BB223F4804323F070037B82AD
:10374C007B8A83F480537B827B8A83F400537B8255
:10375C007B681A687B8A43F07F4343F47F0343F40E
:10376C00004343F080039BB2138034E27B681B68F8
:10377C001A4697F84D309B0013441B88A7F84A3023
:10378C00B7F94A30002B80F2FC807B681B681A4624
:10379C0097F84D309B0013441B889AB240F68F73F8
:1037AC001340A7F848307B681B681A4697F84D30D1
:1037BC009B001344B7F8482042F0800292B21A8062
:1037CC0097F84D2013469B001344DB0003F5B473AC
:1037DC007A6813447B657B6D1B7B002B25D17B6842
:1037EC001B68B3F850309BB21A467B6D1B78DB001C
:1037FC00134406335B007A681268134403F5806344
:10380C001B88C3F30903A7F85030B7F85030002BCE
:10381C0000F092807B6818687B6D59697B6DDA8843
:10382C00B7F8503003F02CFF86E07B6DDB78022B71
:10383C000AD1B7F84A301A46796D786800F0D9F990
:10384C000346A7F8503077E07B681B681A467B6DFF
:10385C001B789B0013441B889BB223F4E04323F09A
:10386C007003A7F852307B681B681A467B6D1B7877
:10387C009B001A44B7F8523043F07F4343F47F0364
:10388C0043F4004343F0C0039BB213807B681B6876
:10389C001A467B6D1B789B0013441B889BB203F468
:1038AC008043002B24D07B681B68B3F850309BB24C
:1038BC001A467B6D1B78DB00134402335B007A687D
:1038CC001268134403F580631B88C3F30903A7F83C
:1038DC005030B7F85030002B2ED07B6818687B6DB9
:1038EC0059697B6D1A89B7F8503003F0C9FE23E093
:1038FC007B681B68B3F850309BB21A467B6D1B7803
:10390C00DB00134406335B007A681268134403F53A
:10391C0080631B88C3F30903A7F85030B7F8503005
:10392C00002B09D07B6818687B6D59697B6D5A89AF
:10393C00B7F8503003F0A4FE7B6DDA69B7F850305D
:10394C001A447B6DDA617B6D5A69B7F850301A44B2
:10395C007B6D5A617B6D9B69002B05D0B7F85020AD
:10396C007B6D1B699A4206D27B6D1B781946786871
:10397C0005F0C0FC05E07B681B68796D184602F009
:10398C004BF9B7F84A3003F08003002B00F0238189
:10399C0097F84D305A1C13469B001344DB007A6891
:1039AC0013447B657B681B681A4697F84D309B0067
:1039BC0013441B889BB223F4E14323F07003A7F854
:1039CC0042307B681B681A4697F84D309B001A44AE
:1039DC00B7F842306FEA43436FEA53439BB213800C
:1039EC007B6DDB78012B40F0A2807B6D00229A610D
:1039FC007B6D1B7B002B00F09380B7F84A3003F0F3
:103A0C004003002B46D07B6D5B78002B26D17B6866
:103A1C001B687B627B681B68B3F850309BB21A46FC
:103A2C007B6A13447B627B6D1B781A017B6A13449F
:103A3C0003F204433B623B6A1B889BB2C3F309034A
:103A4C009AB23B6A1A803B6A1B889BB26FEA43436B
:103A5C006FEA53439AB23B6A1A8061E07B6D5B78E4
:103A6C00012B5DD17B681B68FB627B681B68B3F81C
:103A7C0050309BB21A46FB6A1344FB627B6D1B7879
:103A8C001A01FB6A134403F20443BB62BB6A0022B3
:103A9C001A8045E07B681B68FB637B6D5B78002BB1
:103AAC0026D17B681B687B637B681B68B3F850303E
:103ABC009BB21A467B6B13447B637B6D1B781A019C
:103ACC007B6B134403F20C433B633B6B1B889BB235
:103ADC00C3F309039AB23B6B1A803B6B1B889BB2F6
:103AEC006FEA43436FEA53439AB23B6B1A8017E079
:103AFC007B6D5B78012B13D17B681B68B3F850305E
:103B0C009BB21A46FB6B1344FB637B6D1B781A014B
:103B1C00FB6B134403F20C43BB63BB6B00221A8098
:103B2C007B6D1B781946786805F0FFFB53E0B7F8FE
:103B3C004A3003F48073002B46D17B681B68B3F8C2
:103B4C0050309BB21A467B6D1B78DB00134402335A
:103B5C005B007A681268134403F580631B88C3F317
:103B6C000903A7F840307B6D9A69B7F840309A4248
:103B7C0007D97B6D9A69B7F84030D21A7B6D9A6180
:103B8C0002E07B6D00229A617B6D9B69002B06D154
:103B9C007B6D1B781946786805F0C7FB1BE07B6DC5
:103BAC005A69B7F840301A447B6D5A617B6DDA69FB
:103BBC00B7F840301A447B6DDA617B681B68796D0D
:103BCC00184602F029F806E0B7F84A301A46796D23
:103BDC00786800F01BF97B681B68B3F844309BB223
:103BEC001BB2002BFFF637AC002318465837BD46E6
:103BFC0080BD80B588B000AFF860B9601346FB801B
:103C0C00FB8803F48043002B7ED0FB681B68B3F861
:103C1C0050309BB21A46BB681B78DB00134402334E
:103C2C005B00FA681268134403F580631B88C3F3C6
:103C3C0009037B83BB689A697B8B9A4206D3BB686A
:103C4C009A697B8BD21ABB689A6102E0BB6800222E
:103C5C009A61BB689B69002B23D1FB681B681A46D1
:103C6C00BB681B789B0013441B889BB223F48043D6
:103C7C0023F070033B833B8B83F400533B83FB6843
:103C8C001B681A46BB681B789B001A443B8B43F09D
:103C9C007F4343F47F0343F4004343F080039BB220
:103CAC001380FB8803F04003002B1FD0FB681B68BC
:103CBC001A46BB681B789B0013441B889BB223F4E9
:103CCC00E04323F07003FB82FB681B681A46BB6859
:103CDC001B789B001A44FB8A43F07F4343F47F0319
:103CEC0043F4004343F0C0039BB213807B8B002B47
:103CFC0000F08780FB681868BB685969BB681A8933
:103D0C007B8B03F0BDFC7CE0FB681B68B3F8503088
:103D1C009BB21A46BB681B78DB00134406335B006E
:103D2C00FA681268134403F580631B88C3F3090314
:103D3C007B83BB689A697B8B9A4206D3BB689A6972
:103D4C007B8BD21ABB689A6102E0BB6800229A6135
:103D5C00BB689B69002B23D1FB681B681A46BB68A8
:103D6C001B789B0013441B889BB223F4804323F0E5
:103D7C007003FB83FB8B83F40053FB83FB681B6892
:103D8C001A46BB681B789B001A44FB8B43F07F439D
:103D9C0043F47F0343F4004343F080039BB213804E
:103DAC00FB8803F04003002B1FD1FB681B681A46ED
:103DBC00BB681B789B0013441B889BB223F4E04325
:103DCC0023F07003BB83FB681B681A46BB681B7827
:103DDC009B001A44BB8B43F07F4343F47F0343F4B3
:103DEC00004343F0C0039BB213807B8B002B08D0A5
:103DFC00FB681868BB685969BB685A897B8B03F0F0
:103E0C003FFC7B8B18462037BD4680BD80B5A4B0E7
:103E1C0000AFF860B9601346FB80FB8803F04003E9
:103E2C00002B00F0DD81FB681B68B3F850309BB2AF
:103E3C001A46BB681B78DB00134402335B00FA683C
:103E4C001268134403F580631B88C3F30903A7F8B6
:103E5C008630BB689A69B7F886309A4207D9BB6836
:103E6C009A69B7F88630D21ABB689A6102E0BB68CF
:103E7C0000229A61BB689B69002B40F0B980BB683B
:103E8C005B78002B26D1FB681B68FB62FB681B6808
:103E9C00B3F850309BB21A46FB6A1344FB62BB6802
:103EAC001B781A01FB6A134403F20443BB62BB6A1E
:103EBC001B889BB2C3F309039AB2BB6A1A80BB6A14
:103ECC001B889BB26FEA43436FEA53439AB2BB6AB7
:103EDC001A801AE0BB685B78012B16D1FB681B6853
:103EEC007B63FB681B68B3F850309BB21A467B6B44
:103EFC0013447B63BB681B781A017B6B134403F27E
:103F0C0004433B633B6B00221A80FB681B687B629B
:103F1C00BB685B78002B26D1FB681B68FB61FB68D8
:103F2C001B68B3F850309BB21A46FB691344FB6113
:103F3C00BB681B781A01FB69134403F20C43BB6189
:103F4C00BB691B889BB2C3F309039AB2BB691A8085
:103F5C00BB691B889BB26FEA43436FEA53439AB227
:103F6C00BB691A8017E0BB685B78012B13D1FB6827
:103F7C001B68B3F850309BB21A467B6A13447B62C1
:103F8C00BB681B781A017B6A134403F20C433B6237
:103F9C003B6A00221A80BB681B781946F86805F04A
:103FAC00C4F9FB8803F48043002B00F0FC82FB680F
:103FBC001B681A46BB681B789B0013441B889BB27A
:103FCC0023F4E04323F07003FB82FB681B681A4662
:103FDC00BB681B789B001A44FB8A43F07F4343F475
:103FEC007F0343F4404343F080039BB21380DAE237
:103FFC00FB8803F48043002B21D0FB681B681A4616
:10400C00BB681B789B0013441B889BB223F4E043D2
:10401C0023F07003A7F88A30FB681B681A46BB684C
:10402C001B789B001A44B7F88A3043F07F4343F463
:10403C007F0343F4404343F080039BB21380BB687F
:10404C0093F82430012B40F0AE82BB685A69B7F864
:10405C0086301A44BB685A61BB68DA69B7F8863097
:10406C001A44BB68DA61BB681A6ABB681B699A425E
:10407C000BD3BB681B69C7F88C30BB681A6AD7F8BE
:10408C008C30D21ABB681A6217E0BB681B6A002B13
:10409C0008D1B7F88630C7F88C30BB68002283F89B
:1040AC0024200AE0BB68002283F82420BB681B6A2A
:1040BC00C7F88C30BB6800221A62BB685B78002B97
:1040CC0065D1FB681B68FB63FB681B68B3F8503059
:1040DC009BB21A46FB6B1344FB63BB681B781A013B
:1040EC00FB6B134403F20443BB63BB6B1B889BB297
:1040FC00C3F309039AB2BB6B1A80D7F88C303E2BF2
:10410C001DD9D7F88C305B09BB64D7F88C3003F021
:10411C001F03002B02D1BB6C013BBB64BB6B1B8828
:10412C009AB2BB6C9BB29B029BB213439BB26FEADD
:10413C0043436FEA53439AB2BB6B1A8044E0D7F8FF
:10414C008C30002B0AD1BB6B1B889BB26FEA4343AC
:10415C006FEA53439AB2BB6B1A8035E0D7F88C30B8
:10416C005B08BB64D7F88C3003F00103002B02D042
:10417C00BB6C0133BB64BB6B1B889AB2BB6C9BB230
:10418C009B029BB213439AB2BB6B1A801CE0BB68B8
:10419C005B78012B18D1FB681B687B64FB681B6880
:1041AC00B3F850309BB21A467B6C13447B64BB68EB
:1041BC001B781A017B6C134403F204433B64D7F85D
:1041CC008C309AB23B6C1A80FB681868BB685969D2
:1041DC00BB681A89D7F88C309BB203F00CFAE2E179
:1041EC00FB681B68B3F850309BB21A46BB681B784F
:1041FC00DB00134406335B00FA681268134403F5C2
:10420C0080631B88C3F30903A7F88630BB689A69DF
:10421C00B7F886309A4207D3BB689A69B7F88630EC
:10422C00D21ABB689A6102E0BB6800229A61BB6833
:10423C009B69002B40F0C080BB685B78002B26D1BB
:10424C00FB681B68FB67FB681B68B3F850309BB2BC
:10425C001A46FB6F1344FB67BB681B781A01FB6F94
:10426C00134403F20443BB67BB6F1B889BB2C3F3BD
:10427C0009039AB2BB6F1A80BB6F1B889BB26FEAA3
:10428C0043436FEA53439AB2BB6F1A801AE0BB6880
:10429C005B78012B16D1FB681B687B66FB681B687F
:1042AC00B3F850309BB21A467B6E13447B66BB68E6
:1042BC001B781A017B6E134403F204433B663B6E7E
:1042CC0000221A80FB681B687B67BB685B78002B3D
:1042DC002BD1FB681B68FB66FB681B68B3F850307E
:1042EC009BB21A46FB6E1344FB66BB681B781A0123
:1042FC00FB6E134403F20C43C7F88030D7F88030C0
:10430C001B889BB2C3F309039AB2D7F880301A808A
:10431C00D7F880301B889BB26FEA43436FEA534354
:10432C009AB2D7F880301A8017E0BB685B78012B03
:10433C0013D1FB681B68B3F850309BB21A467B6FE5
:10434C0013447B67BB681B781A017B6F134403F221
:10435C000C433B673B6F00221A80BB681B781946E5
:10436C00F86804F0E2FFFB8803F48043002B40F074
:10437C001A81FB681B681A46BB681B789B001344A8
:10438C001B889BB223F4E04323F07003A7F888301A
:10439C00FB681B681A46BB681B789B001A44B7F86D
:1043AC00883043F07F4343F47F0343F4404343F0AE
:1043BC0080039BB21380F6E0FB8803F48043002B50
:1043CC0021D1FB681B681A46BB681B789B00134401
:1043DC001B889BB223F4E04323F07003A7F84E3004
:1043EC00FB681B681A46BB681B789B001A44B7F81D
:1043FC004E3043F07F4343F47F0343F4404343F098
:10440C0080039BB21380BB6893F82430012B40F0DF
:10441C00CA80BB685A69B7F886301A44BB685A61BF
:10442C00BB68DA69B7F886301A44BB68DA61BB68D6
:10443C001A6ABB681B699A420BD3BB681B69C7F825
:10444C008C30BB681A6AD7F88C30D21ABB681A62E7
:10445C0017E0BB681B6A002B08D1B7F88630C7F889
:10446C008C30BB68002283F824200AE0BB681B6AEE
:10447C00C7F88C30BB6800221A62BB68002283F834
:10448C002420FB681B687B65BB685B78002B65D1BF
:10449C00FB681B68FB65FB681B68B3F850309BB26C
:1044AC001A46FB6D1344FB65BB681B781A01FB6D48
:1044BC00134403F20C43BB65BB6D1B889BB2C3F367
:1044CC0009039AB2BB6D1A80D7F88C303E2B1DD9DC
:1044DC00D7F88C305B09BB66D7F88C3003F01F0320
:1044EC00002B02D1BB6E013BBB66BB6D1B889AB225
:1044FC00BB6E9BB29B029BB213439BB26FEA4343CE
:10450C006FEA53439AB2BB6D1A8041E0D7F88C30F6
:10451C00002B0AD1BB6D1B889BB26FEA43436FEA39
:10452C0053439AB2BB6D1A8032E0D7F88C305B08DB
:10453C00BB66D7F88C3003F00103002B02D0BB6EA6
:10454C000133BB66BB6D1B889AB2BB6E9BB29B02E0
:10455C009BB213439AB2BB6D1A8019E0BB685B78AF
:10456C00012B15D1FB681B68B3F850309BB21A466F
:10457C007B6D13447B65BB681B781A017B6D134400
:10458C0003F20C433B65D7F88C309AB23B6D1A8022
:10459C00FB681868BB685969BB685A89D7F88C30B6
:1045AC009BB203F028F8FB681B681A46BB681B78A3
:1045BC009B0013441B889BB223F4E04323F040037D
:1045CC00BB82BB8A83F01003BB82BB8A83F02003BF
:1045DC00BB82FB681B681A46BB681B789B001A449D
:1045EC00BB8A43F07F4343F47F0343F4004343F01F
:1045FC0080039BB21380002318469037BD4680BDC4
:10460C0080B487B000AFF8607B600B467B811346AB
:10461C003B817B8903F080039BB2002B0BD07B8901
:10462C0003F007035A1C13469B001344DB00FA6883
:10463C0013447B6109E07A8913469B001344DB0029
:10464C0003F5B473FA6813447B613B89002B07D1E3
:10465C007B6900221A737B689AB27B69DA800BE063
:10466C007B6901221A737B689AB27B691A817B6819
:10467C001B0C9AB27B695A81002318461C37BD4625
:10468C0080BC704780B586B000AF78607B68002B2B
:10469C0001D1012372E27B681B6803F00103002B3C
:1046AC0000F08780924B5B6803F00C03042B0CD05A
:1046BC008F4B5B6803F00C03082B12D18C4B5B689F
:1046CC0003F48033B3F5803F0BD1894B1B6803F4A3
:1046DC000033002B6CD07B685B68002B68D1012306
:1046EC004CE27B685B68B3F5803F06D1804B1B685E
:1046FC007F4A43F4803313602EE07B685B68002BA9
:10470C000CD17B4B1B687A4A23F480331360784BB3
:10471C001B68774A23F4802313601DE07B685B6879
:10472C00B3F5A02F0CD1724B1B68714A43F4802354
:10473C0013606F4B1B686E4A43F4803313600BE0BD
:10474C006B4B1B686A4A23F480331360684B1B68FD
:10475C00674A23F4802313607B685B68002B13D0BB
:10476C00FCF70EF8386108E0FCF70AF802463B69E2
:10477C00D31A642B01D9032300E25D4B1B6803F4AD
:10478C000033002BF0D014E0FBF7FAFF386108E09F
:10479C00FBF7F6FF02463B69D31A642B01D90323BE
:1047AC00ECE1534B1B6803F40033002BF0D100E019
:1047BC0000BF7B681B6803F00203002B63D04C4BDB
:1047CC005B6803F00C03002B0BD0494B5B6803F0C8
:1047DC000C03082B1CD1464B5B6803F48033002B75
:1047EC0016D1434B1B6803F00203002B05D07B68EA
:1047FC001B69012B01D00123C0E13D4B1B6823F049
:10480C00F8027B685B69DB00394913430B603AE0C3
:10481C007B681B69002B20D0364B01221A60FBF7FA
:10482C00AFFF386108E0FBF7ABFF02463B69D31AD8
:10483C00022B01D90323A1E12D4B1B6803F00203CA
:10484C00002BF0D02A4B1B6823F0F8027B685B69C5
:10485C00DB00274913430B6015E0264B00221A603E
:10486C00FBF78EFF386108E0FBF78AFF02463B69D5
:10487C00D31A022B01D9032380E11D4B1B6803F0D3
:10488C000203002BF0D17B681B6803F00803002B9C
:10489C003AD07B689B69002B19D0174B01221A6008
:1048AC00FBF76EFF386108E0FBF76AFF02463B69D5
:1048BC00D31A022B01D9032360E10D4B5B6A03F081
:1048CC000203002BF0D0012000F0BAFA1CE00A4BD6
:1048DC0000221A60FBF754FF38610FE0FBF750FF22
:1048EC0002463B69D31A022B08D9032346E100BFC9
:1048FC00001002400000424280044242924B5B6A2C
:10490C0003F00203002BE9D17B681B6803F004035E
:10491C00002B00F0A6800023FB758B4BDB6903F0AA
:10492C008053002B0DD1884BDB69874A43F08053B1
:10493C00D361854BDB6903F08053BB60BB680123FB
:10494C00FB75824B1B6803F48073002B18D17F4BD3
:10495C001B687E4A43F480731360FBF711FF3861C8
:10496C0008E0FBF70DFF02463B69D31A642B01D913
:10497C00032303E1754B1B6803F48073002BF0D009
:10498C007B68DB68012B06D16F4B1B6A6E4A43F0C8
:10499C00010313622DE07B68DB68002B0CD16A4BA2
:1049AC001B6A694A23F001031362674B1B6A664A50
:1049BC0023F0040313621CE07B68DB68052B0CD12D
:1049CC00614B1B6A604A43F0040313625E4B1B6A23
:1049DC005D4A43F0010313620BE05B4B1B6A5A4ABE
:1049EC0023F001031362584B1B6A574A23F004034C
:1049FC0013627B68DB68002B15D0FBF7C1FE3861B6
:104A0C000AE0FBF7BDFE02463B69D31A41F288323D
:104A1C00934201D90323B1E04B4B1B6A03F0020311
:104A2C00002BEED014E0FBF7ABFE38610AE0FBF78D
:104A3C00A7FE02463B69D31A41F28832934201D950
:104A4C0003239BE0404B1B6A03F00203002BEED1C7
:104A5C00FB7D012B05D13C4BDB693B4A23F080539A
:104A6C00D3617B68DB69002B00F08780364B5B6879
:104A7C0003F00C03082B61D07B68DB69022B46D159
:104A8C00334B00221A60FBF77BFE386108E0FBF722
:104A9C0077FE02463B69D31A022B01D903236DE042
:104AAC00294B1B6803F00073002BF0D17B681B6A49
:104ABC00B3F5803F08D1244B5B6823F400327B684C
:104ACC009B68214913434B601F4B5B6823F47412A2
:104ADC007B68196A7B685B6A0B431B4913434B6009
:104AEC001B4B01221A60FBF74BFE386108E0FBF709
:104AFC0047FE02463B69D31A022B01D903233DE042
:104B0C00114B1B6803F00073002BF0D035E0104BF9
:104B1C0000221A60FBF734FE386108E0FBF730FE28
:104B2C0002463B69D31A022B01D9032326E0064B1C
:104B3C001B6803F00073002BF0D11EE07B68DB696F
:104B4C00012B07D1012319E0001002400070004036
:104B5C00600042420B4B5B68FB60FB6803F48032E5
:104B6C007B681B6A9A4206D1FB6803F470127B685F
:104B7C005B6A9A4201D0012300E0002318461837E3
:104B8C00BD4680BD0010024080B584B000AF786097
:104B9C0039607B68002B01D10123D0E06A4B1B6884
:104BAC0003F007033A689A4210D9674B1B6823F04D
:104BBC00070265493B6813430B60634B1B6803F0AA
:104BCC0007033A689A4201D00123B8E07B681B685E
:104BDC0003F00203002B20D07B681B6803F0040356
:104BEC00002B05D0594B5B68584A43F4E063536083
:104BFC007B681B6803F00803002B05D0534B5B68E4
:104C0C00524A43F460535360504B5B6823F0F002FC
:104C1C007B689B684D4913434B607B681B6803F0B2
:104C2C000103002B40D07B685B68012B07D1474BFD
:104C3C001B6803F40033002B15D101237FE07B6844
:104C4C005B68022B07D1414B1B6803F00073002BF0
:104C5C0009D1012373E03D4B1B6803F00203002BC9
:104C6C0001D101236BE0394B5B6823F003027B68B5
:104C7C005B68364913434B60FBF782FDF8600AE032
:104C8C00FBF77EFD0246FB68D31A41F28832934251
:104C9C0001D9032353E02D4B5B6803F00C027B68B6
:104CAC005B689B009A42EBD1274B1B6803F0070310
:104CBC003A689A4210D2244B1B6823F0070222490F
:104CCC003B6813430B60204B1B6803F007033A68E7
:104CDC009A4201D0012332E07B681B6803F0040385
:104CEC00002B08D0194B5B6823F4E0627B68DB680F
:104CFC00164913434B607B681B6803F00803002BB9
:104D0C0009D0124B5B6823F460527B681B69DB0093
:104D1C000E4913434B6000F021F802460B4B5B68C5
:104D2C001B0903F00F030A49CB5C22FA03F3094A6F
:104D3C001360094B1B681846FBF7E0FC0023184670
:104D4C001037BD4680BD00BF00200240001002405D
:104D5C00D8990008000000200400002080B487B01F
:104D6C0000AF0023FB600023BB6000237B610023AA
:104D7C007B6000233B611E4B5B68FB60FB6803F0B0
:104D8C000C03042B02D0082B03D027E0194B3B61FA
:104D9C0027E0FB689B0C03F00F03174AD35C7B6086
:104DAC00FB6803F48033002B10D0114B5B685B0C59
:104DBC0003F00103114AD35CBB607B680D4A03FB13
:104DCC0002F2BB68B2FBF3F37B6104E07B680C4A34
:104DDC0002FB03F37B617B693B6102E0054B3B61AA
:104DEC0000BF3B6918461C37BD4680BC704700BFEE
:104DFC000010024000127A00F0990008009A000896
:104E0C0000093D0080B400AF024B1B681846BD463C
:104E1C0080BC70470000002080B500AFFFF7F2FFA8
:104E2C000246054B5B681B0A03F007030349CB5C86
:104E3C0022FA03F3184680BD00100240E8990008DE
:104E4C0080B485B000AF78600A4B1B680A4AA2FB9D
:104E5C0003235B0A7A6802FB03F3FB6000BFFB6869
:104E6C005A1EFA60002BF9D100BF00BF1437BD46A3
:104E7C0080BC704700000020D34D621080B586B016
:104E8C0000AF786000233B610023FB607B681B68EC
:104E9C0003F00103002B7DD00023FB754F4BDB6926
:104EAC0003F08053002B0DD14C4BDB694B4A43F084
:104EBC008053D361494BDB6903F08053BB60BB6803
:104ECC000123FB75464B1B6803F48073002B18D130
:104EDC00434B1B68424A43F480731360FBF750FC4E
:104EEC00386108E0FBF74CFC02463B69D31A642B93
:104EFC0001D903236DE03A4B1B6803F48073002B3C
:104F0C00F0D0364B1B6A03F44073FB60FB68002B3C
:104F1C002ED07B685B6803F44073FA689A4227D002
:104F2C002E4B1B6A23F44073FB602E4B01221A603C
:104F3C002C4B00221A60294AFB681362FB6803F0B1
:104F4C000103002B14D0FBF71BFC38610AE0FBF7C4
:104F5C0017FC02463B69D31A41F28832934201D9BD
:104F6C00032336E01D4B1B6A03F00203002BEED02B
:104F7C001A4B1B6A23F440727B685B681749134316
:104F8C000B62FB7D012B05D1144BDB69134A23F01B
:104F9C008053D3617B681B6803F00203002B08D09D
:104FAC000E4B5B6823F440427B689B680B491343B0
:104FBC004B607B681B6803F01003002B08D0074B79
:104FCC005B6823F480027B68DB68044913434B6005
:104FDC00002318461837BD4680BD00BF00100240A4
:104FEC00007000404004424284B080B483B000AFF3
:104FFC00786007F1140080E80E00002318460C3787
:10500C00BD4680BC04B0704780B485B000AF7860FA
:10501C007B680022A3F844204FF43F43FB60FB68FD
:10502C009AB27B68A3F84020002318461437BD467B
:10503C0080BC704780B485B000AF78604FF43F43BC
:10504C00FB607B68B3F840309AB2FB689BB2DB43E1
:10505C009BB213409AB27B68A3F8402000231846F9
:10506C001437BD4680BC704780B483B000AF786005
:10507C000B46FB70002318460C37BD4680BC7047AE
:10508C0084B080B483B000AF786007F1140080E87E
:10509C000E007B680122A3F840207B680022A3F855
:1050AC0040207B680022A3F844207B680022A3F8F0
:1050BC005020002318460C37BD4680BC04B0704706
:1050CC0080B49DB000AF78603960002387F86F30F2
:1050DC007A683B681B789B0013441B889BB223F4B3
:1050EC00EC4323F07003A7F86C303B68DB78032BA0
:1050FC001FD801A252F823F01551000831510008B5
:10510C004751000823510008B7F86C3043F4007382
:10511C00A7F86C3012E0B7F86C3043F4C063A7F812
:10512C006C300BE0B7F86C3043F48063A7F86C304C
:10513C0004E0012387F86F3000E000BF7A683B6819
:10514C001B789B001A44B7F86C3043F07F4343F450
:10515C007F0343F4004343F080039BB213807A68CF
:10516C003B681B789B0013441B889BB223F4E043E1
:10517C0023F070039AB23B681B789BB21343A7F8D9
:10518C0066307A683B681B789B001A44B7F8663027
:10519C0043F07F4343F47F0343F4004343F0800325
:1051AC009BB213803B681B7B002B40F078813B68E3
:1051BC005B78002B00F084807B68BB617B68B3F864
:1051CC0050309BB21A46BB691344BB613B681B78D9
:1051DC001A01BB69134403F580637B613B68DB8870
:1051EC005B089BB25B009AB27B691A807A683B6859
:1051FC001B789B0013441B887B827B8A03F0400343
:10520C00002B1BD07A683B681B789B0013441B88CF
:10521C009BB223F4E04323F070033B827A683B6833
:10522C001B789B001A443B8A43F07F4343F47F0373
:10523C0043F4004343F0C0039BB213803B68DB781C
:10524C00012B20D07A683B681B789B0013441B8889
:10525C009BB223F4E04323F04003BB81BB8983F072
:10526C002003BB817A683B681B789B001A44BB897E
:10527C0043F07F4343F47F0343F4004343F0800344
:10528C009BB21380D5E27A683B681B789B00134471
:10529C001B889BB223F4E04323F04003FB817A6824
:1052AC003B681B789B001A44FB8943F07F4343F413
:1052BC007F0343F4004343F080039BB21380B8E2B6
:1052CC007B683B637B68B3F850309BB21A463B6BF0
:1052DC0013443B633B681B781A013B6B134403F587
:1052EC008163FB623B68DB885B089BB25B009AB214
:1052FC00FB6A1A807B68BB627B68B3F850309BB248
:10530C001A46BB6A1344BB623B681B781A01BB6A22
:10531C00134403F20C437B627B6A1B889BB2C3F37E
:10532C0009039AB27B6A1A803B681B693E2B1DD914
:10533C003B681B695B09BB663B681B6903F01F0379
:10534C00002B02D1BB6E013BBB667B6A1B889AB2F9
:10535C00BB6E9BB29B029BB213439BB26FEA43435F
:10536C006FEA53439AB27B6A1A8026E03B681B694A
:10537C00002B0AD17B6A1B889BB26FEA43436FEA0E
:10538C0053439AB27B6A1A8017E03B681B695B082F
:10539C00BB663B681B6903F00103002B02D0BB6E9C
:1053AC000133BB667B6A1B889AB2BB6E9BB29B02B5
:1053BC009BB213439AB27B6A1A807A683B681B785B
:1053CC009B0013441B887B847B8C03F48043002B51
:1053DC001BD07A683B681B789B0013441B889BB2DC
:1053EC0023F4E04323F070033B847A683B681B781A
:1053FC009B001A443B8C43F07F4343F47F0343F4FC
:10540C00404343F080039BB213803B681B78002B16
:10541C0024D17A683B681B789B0013441B889BB291
:10542C0023F4804323F07003BB83BB8B83F4805342
:10543C00BB83BB8B83F40053BB837A683B681B78BC
:10544C009B001A44BB8B43F07F4343F47F0343F42C
:10545C00004343F080039BB21380EAE17A683B6817
:10546C001B789B0013441B889BB223F4804323F0CE
:10547C007003FB83FB8B83F40053FB837A683B68DC
:10548C001B789B001A44FB8B43F07F4343F47F0350
:10549C0043F4004343F080039BB21380C9E13B68A3
:1054AC00DB78022B1ED17A683B681B789B00134477
:1054BC001B889BB223F4E04323F07003A7F86230FF
:1054CC007A683B681B789B001A44B7F8623043F04B
:1054DC007F4343F47F0343F4014343F080039BB2C7
:1054EC0013801DE07A683B681B789B0013441B8873
:1054FC009BB223F4E24323F07003A7F864307A687C
:10550C003B681B789B001A44B7F8643043F07F4328
:10551C0043F47F0343F4004343F080039BB21380B6
:10552C007B68FB657B68B3F850309BB21A46FB6D09
:10553C001344FB653B681B781A01FB6D134403F5A0
:10554C008063BB653B681B895B089BB25B009AB2AE
:10555C00BB6D1A807B687B657B68B3F850309BB25F
:10556C001A467B6D13447B653B681B781A017B6D77
:10557C00134403F581633B653B685B895B089BB215
:10558C005B009AB23B6D1A803B685B78002B40F055
:10559C0093807A683B681B789B0013441B88A7F8A0
:1055AC004030B7F8403003F48043002B1BD07A68AE
:1055BC003B681B789B0013441B889BB223F4E0438D
:1055CC0023F07003FB877A683B681B789B001A44B6
:1055DC00FB8F43F07F4343F47F0343F4404343F09A
:1055EC0080039BB213807A683B681B789B00134442
:1055FC001B88BB87BB8F03F04003002B1BD07A6842
:10560C003B681B789B0013441B889BB223F4E0433C
:10561C0023F070037B877A683B681B789B001A44E5
:10562C007B8F43F07F4343F47F0343F4004343F009
:10563C00C0039BB213807A683B681B789B001344B1
:10564C001B889BB223F4804323F070033B873B8F72
:10565C0083F480533B873B8F83F400533B877A68FA
:10566C003B681B789B001A443B8F43F07F4343F409
:10567C007F0343F4004343F080039BB213807A68AA
:10568C003B681B789B0013441B889BB223F4E043BC
:10569C0023F04003FB867A683B681B789B001A4416
:1056AC00FB8E43F07F4343F47F0343F4004343F00A
:1056BC0080039BB21380BCE07A683B681B789B002C
:1056CC0013441B88A7F84E30B7F84E3003F48043D0
:1056DC00002B1DD07A683B681B789B0013441B88F9
:1056EC009BB223F4E04323F07003A7F84C307A68A4
:1056FC003B681B789B001A44B7F84C3043F07F434F
:10570C0043F47F0343F4404343F080039BB2138084
:10571C007A683B681B789B0013441B88A7F84A30B7
:10572C00B7F84A3003F04003002B1DD07A683B6871
:10573C001B789B0013441B889BB223F4E04323F09B
:10574C007003A7F848307A683B681B789B001A44B2
:10575C00B7F8483043F07F4343F47F0343F40043EE
:10576C0043F0C0039BB213803B68DB78012B24D041
:10577C007A683B681B789B0013441B889BB223F40C
:10578C00E04323F04003A7F84430B7F8443083F0EB
:10579C002003A7F844307A683B681B789B001A44B6
:1057AC00B7F8443043F07F4343F47F0343F40043A2
:1057BC0043F080039BB213801DE07A683B681B7832
:1057CC009B0013441B889BB223F4E04323F040035B
:1057DC00A7F846307A683B681B789B001A44B7F8E8
:1057EC00463043F07F4343F47F0343F4004343F0DC
:1057FC0080039BB213807A683B681B789B00134430
:10580C001B889BB223F4804323F07003A7F842302B
:10581C007A683B681B789B001A44B7F8423043F017
:10582C007F4343F47F0343F4004343F080039BB274
:10583C00138097F86F3018467437BD4680BC70479C
:10584C0080B48DB000AF786039603B681B7B002B57
:10585C0040F08E803B685B78002B44D07A683B68C4
:10586C001B789B0013441B88BB81BB8903F040034E
:10587C00002B1BD07A683B681B789B0013441B8859
:10588C009BB223F4E04323F070037B817A683B687E
:10589C001B789B001A447B8943F07F4343F47F03BE
:1058AC0043F4004343F0C0039BB213807A683B6817
:1058BC001B789B0013441B889BB223F4E04323F01A
:1058CC0040033B817A683B681B789B001A443B89F8
:1058DC0043F07F4343F47F0343F4004343F08003DE
:1058EC009BB2138092E17A683B681B789B0013444F
:1058FC001B887B827B8A03F48043002B1BD07A6845
:10590C003B681B789B0013441B889BB223F4E04339
:10591C0023F070033B827A683B681B789B001A4427
:10592C003B8A43F07F4343F47F0343F4404343F00B
:10593C0080039BB213807A683B681B789B001344EE
:10594C001B889BB223F4804323F07003FB817A689D
:10595C003B681B789B001A44FB8943F07F4343F45C
:10596C007F0343F4004343F080039BB213804DE16B
:10597C003B685B78002B40F0A5807A683B681B780D
:10598C009B0013441B883B843B8C03F48043002B0B
:10599C001BD07A683B681B789B0013441B889BB216
:1059AC0023F4E04323F07003FB837A683B681B7895
:1059BC009B001A44FB8B43F07F4343F47F0343F477
:1059CC00404343F080039BB213807A683B681B789A
:1059DC009B0013441B88BB83BB8B03F04003002B41
:1059EC001BD07A683B681B789B0013441B889BB2C6
:1059FC0023F4E04323F070037B837A683B681B78C5
:105A0C009B001A447B8B43F07F4343F47F0343F4A6
:105A1C00004343F0C0039BB213807A683B681B7849
:105A2C009B0013441B889BB223F4E04323F07003C8
:105A3C003B837A683B681B789B001A443B8B43F092
:105A4C007F4343F47F0343F4004343F0C0039BB212
:105A5C0013807A683B681B789B0013441B889BB2AD
:105A6C0023F4804323F07003FB827A683B681B7835
:105A7C009B001A44FB8A43F07F4343F47F0343F4B7
:105A8C00004343F080039BB213807A683B681B7819
:105A9C009B0013441B889BB223F4E04323F0400388
:105AAC00BB827A683B681B789B001A44BB8A43F024
:105ABC007F4343F47F0343F4004343F080039BB2E2
:105ACC001380A3E07A683B681B789B0013441B8807
